{
  "contractName": "HybridBank",
  "abi": [
    {
      "inputs": [
        {
          "internalType": "contract LendingPoolAddressesProvider",
          "name": "_lendingPoolAddressesProvider",
          "type": "address"
        },
        {
          "internalType": "address",
          "name": "_aTokenAddress",
          "type": "address"
        },
        {
          "internalType": "address",
          "name": "_underlying_asset",
          "type": "address"
        },
        {
          "internalType": "uint16",
          "name": "_referral",
          "type": "uint16"
        }
      ],
      "payable": true,
      "stateMutability": "payable",
      "type": "constructor"
    },
    {
      "anonymous": false,
      "inputs": [
        {
          "indexed": true,
          "internalType": "address",
          "name": "accountAddress",
          "type": "address"
        },
        {
          "indexed": false,
          "internalType": "uint256",
          "name": "amount",
          "type": "uint256"
        }
      ],
      "name": "LogDepositMade",
      "type": "event"
    },
    {
      "anonymous": false,
      "inputs": [
        {
          "indexed": false,
          "internalType": "contract LendingPoolAddressesProvider",
          "name": "provider",
          "type": "address"
        },
        {
          "indexed": false,
          "internalType": "contract LendingPool",
          "name": "lendingPool",
          "type": "address"
        }
      ],
      "name": "LogLendingPool",
      "type": "event"
    },
    {
      "constant": true,
      "inputs": [],
      "name": "owner",
      "outputs": [
        {
          "internalType": "address",
          "name": "",
          "type": "address"
        }
      ],
      "payable": false,
      "stateMutability": "view",
      "type": "function"
    },
    {
      "constant": false,
      "inputs": [
        {
          "internalType": "uint256",
          "name": "_amount",
          "type": "uint256"
        }
      ],
      "name": "deposit",
      "outputs": [
        {
          "internalType": "uint256",
          "name": "",
          "type": "uint256"
        },
        {
          "internalType": "uint256",
          "name": "",
          "type": "uint256"
        }
      ],
      "payable": true,
      "stateMutability": "payable",
      "type": "function"
    },
    {
      "constant": false,
      "inputs": [
        {
          "internalType": "uint256",
          "name": "withdrawAmount",
          "type": "uint256"
        }
      ],
      "name": "withdraw",
      "outputs": [
        {
          "internalType": "uint256",
          "name": "remainingBal",
          "type": "uint256"
        }
      ],
      "payable": false,
      "stateMutability": "nonpayable",
      "type": "function"
    },
    {
      "constant": false,
      "inputs": [
        {
          "internalType": "uint256",
          "name": "amount",
          "type": "uint256"
        },
        {
          "internalType": "address payable",
          "name": "recipient",
          "type": "address"
        }
      ],
      "name": "send",
      "outputs": [
        {
          "internalType": "uint256",
          "name": "balance",
          "type": "uint256"
        },
        {
          "internalType": "uint256",
          "name": "invested",
          "type": "uint256"
        }
      ],
      "payable": false,
      "stateMutability": "nonpayable",
      "type": "function"
    },
    {
      "constant": true,
      "inputs": [],
      "name": "balance",
      "outputs": [
        {
          "internalType": "uint256",
          "name": "",
          "type": "uint256"
        }
      ],
      "payable": false,
      "stateMutability": "view",
      "type": "function"
    },
    {
      "constant": false,
      "inputs": [
        {
          "internalType": "uint256",
          "name": "investmentThreshold",
          "type": "uint256"
        }
      ],
      "name": "setInvestmentThreshold",
      "outputs": [
        {
          "internalType": "uint256",
          "name": "investmentThresholdSet",
          "type": "uint256"
        }
      ],
      "payable": false,
      "stateMutability": "nonpayable",
      "type": "function"
    },
    {
      "constant": true,
      "inputs": [],
      "name": "getInvestmentThreshold",
      "outputs": [
        {
          "internalType": "uint256",
          "name": "",
          "type": "uint256"
        }
      ],
      "payable": false,
      "stateMutability": "view",
      "type": "function"
    },
    {
      "constant": true,
      "inputs": [],
      "name": "getInvestmentBalance",
      "outputs": [
        {
          "internalType": "uint256",
          "name": "",
          "type": "uint256"
        }
      ],
      "payable": false,
      "stateMutability": "view",
      "type": "function"
    },
    {
      "constant": false,
      "inputs": [
        {
          "internalType": "uint256",
          "name": "minBalance",
          "type": "uint256"
        }
      ],
      "name": "setMinBalance",
      "outputs": [
        {
          "internalType": "uint256",
          "name": "minBalanceSet",
          "type": "uint256"
        }
      ],
      "payable": false,
      "stateMutability": "nonpayable",
      "type": "function"
    },
    {
      "constant": true,
      "inputs": [],
      "name": "getMinBalance",
      "outputs": [
        {
          "internalType": "uint256",
          "name": "",
          "type": "uint256"
        }
      ],
      "payable": false,
      "stateMutability": "view",
      "type": "function"
    },
    {
      "constant": true,
      "inputs": [],
      "name": "depositsBalance",
      "outputs": [
        {
          "internalType": "uint256",
          "name": "",
          "type": "uint256"
        }
      ],
      "payable": false,
      "stateMutability": "view",
      "type": "function"
    }
  ],
  "bytecode": "0x60806040526040516112043803806112048339818101604052608081101561002657600080fd5b810190808051906020019092919080519060200190929190805190602001909291908051906020019092919050505033600260006101000a81548173ffffffffffffffffffffffffffffffffffffffff021916908373ffffffffffffffffffffffffffffffffffffffff16021790555060008490508073ffffffffffffffffffffffffffffffffffffffff16630261bf8b6040518163ffffffff1660e01b815260040160206040518083038186803b1580156100e157600080fd5b505afa1580156100f5573d6000803e3d6000fd5b505050506040513d602081101561010b57600080fd5b8101908080519060200190929190505050600360006101000a81548173ffffffffffffffffffffffffffffffffffffffff021916908373ffffffffffffffffffffffffffffffffffffffff16021790555083600460006101000a81548173ffffffffffffffffffffffffffffffffffffffff021916908373ffffffffffffffffffffffffffffffffffffffff16021790555082600560006101000a81548173ffffffffffffffffffffffffffffffffffffffff021916908373ffffffffffffffffffffffffffffffffffffffff16021790555081600460146101000a81548161ffff021916908361ffff1602179055507f389858284cadc0634556f422ed289e9467dfdc73433399242315175255bc6ab581600360009054906101000a900473ffffffffffffffffffffffffffffffffffffffff16604051808373ffffffffffffffffffffffffffffffffffffffff1673ffffffffffffffffffffffffffffffffffffffff1681526020018273ffffffffffffffffffffffffffffffffffffffff1673ffffffffffffffffffffffffffffffffffffffff1681526020019250505060405180910390a15050505050610f3c806102c86000396000f3fe60806040526004361061009c5760003560e01c8063b69ef8a811610064578063b69ef8a814610213578063b6b55f251461023e578063c91d956c14610287578063cb6a08b1146102d6578063dee2772b14610301578063e4fae4e4146103505761009c565b8063138fbe71146100a15780632e1a7d4d146100cc5780635345a85c1461011b578063785d04f5146101465780638da5cb5b146101bc575b600080fd5b3480156100ad57600080fd5b506100b661037b565b6040518082815260200191505060405180910390f35b3480156100d857600080fd5b50610105600480360360208110156100ef57600080fd5b8101908080359060200190929190505050610383565b6040518082815260200191505060405180910390f35b34801561012757600080fd5b506101306104b0565b6040518082815260200191505060405180910390f35b34801561015257600080fd5b5061019f6004803603604081101561016957600080fd5b8101908080359060200190929190803573ffffffffffffffffffffffffffffffffffffffff1690602001909291905050506104fa565b604051808381526020018281526020019250505060405180910390f35b3480156101c857600080fd5b506101d16109a6565b604051808273ffffffffffffffffffffffffffffffffffffffff1673ffffffffffffffffffffffffffffffffffffffff16815260200191505060405180910390f35b34801561021f57600080fd5b506102286109cc565b6040518082815260200191505060405180910390f35b61026a6004803603602081101561025457600080fd5b8101908080359060200190929190505050610a16565b604051808381526020018281526020019250505060405180910390f35b34801561029357600080fd5b506102c0600480360360208110156102aa57600080fd5b8101908080359060200190929190505050610d4d565b6040518082815260200191505060405180910390f35b3480156102e257600080fd5b506102eb610de0565b6040518082815260200191505060405180910390f35b34801561030d57600080fd5b5061033a6004803603602081101561032457600080fd5b8101908080359060200190929190505050610e2a565b6040518082815260200191505060405180910390f35b34801561035c57600080fd5b50610365610ebd565b6040518082815260200191505060405180910390f35b600047905090565b6000600160003373ffffffffffffffffffffffffffffffffffffffff1673ffffffffffffffffffffffffffffffffffffffff1681526020019081526020016000206000015482116104665781600160003373ffffffffffffffffffffffffffffffffffffffff1673ffffffffffffffffffffffffffffffffffffffff168152602001908152602001600020600001600082825403925050819055503373ffffffffffffffffffffffffffffffffffffffff166108fc839081150290604051600060405180830381858888f19350505050158015610464573d6000803e3d6000fd5b505b600160003373ffffffffffffffffffffffffffffffffffffffff1673ffffffffffffffffffffffffffffffffffffffff168152602001908152602001600020600001549050919050565b6000600160003373ffffffffffffffffffffffffffffffffffffffff1673ffffffffffffffffffffffffffffffffffffffff16815260200190815260200160002060030154905090565b6000806000600160003373ffffffffffffffffffffffffffffffffffffffff1673ffffffffffffffffffffffffffffffffffffffff1681526020019081526020016000206000015485116105e45784600160003373ffffffffffffffffffffffffffffffffffffffff1673ffffffffffffffffffffffffffffffffffffffff168152602001908152602001600020600001600082825403925050819055508373ffffffffffffffffffffffffffffffffffffffff166108fc869081150290604051600060405180830381858888f193505050501580156105de573d6000803e3d6000fd5b5061075e565b600160003373ffffffffffffffffffffffffffffffffffffffff1673ffffffffffffffffffffffffffffffffffffffff168152602001908152602001600020600001548503905080600160003373ffffffffffffffffffffffffffffffffffffffff1673ffffffffffffffffffffffffffffffffffffffff16815260200190815260200160002060030154111561075d5780600160003373ffffffffffffffffffffffffffffffffffffffff1673ffffffffffffffffffffffffffffffffffffffff1681526020019081526020016000206003016000828254039250508190555080600160003373ffffffffffffffffffffffffffffffffffffffff1673ffffffffffffffffffffffffffffffffffffffff168152602001908152602001600020600001600082825401925050819055508373ffffffffffffffffffffffffffffffffffffffff166108fc869081150290604051600060405180830381858888f1935050505015801561075b573d6000803e3d6000fd5b505b5b600160003373ffffffffffffffffffffffffffffffffffffffff1673ffffffffffffffffffffffffffffffffffffffff16815260200190815260200160002060020154600160003373ffffffffffffffffffffffffffffffffffffffff1673ffffffffffffffffffffffffffffffffffffffff16815260200190815260200160002060000154101561091457600160003373ffffffffffffffffffffffffffffffffffffffff1673ffffffffffffffffffffffffffffffffffffffff16815260200190815260200160002060000154600160003373ffffffffffffffffffffffffffffffffffffffff1673ffffffffffffffffffffffffffffffffffffffff1681526020019081526020016000206002015403905080600160003373ffffffffffffffffffffffffffffffffffffffff1673ffffffffffffffffffffffffffffffffffffffff1681526020019081526020016000206003016000828254039250508190555080600160003373ffffffffffffffffffffffffffffffffffffffff1673ffffffffffffffffffffffffffffffffffffffff168152602001908152602001600020600001600082825401925050819055505b600160003373ffffffffffffffffffffffffffffffffffffffff1673ffffffffffffffffffffffffffffffffffffffff16815260200190815260200160002060000154600160003373ffffffffffffffffffffffffffffffffffffffff1673ffffffffffffffffffffffffffffffffffffffff1681526020019081526020016000206003015492509250509250929050565b600260009054906101000a900473ffffffffffffffffffffffffffffffffffffffff1681565b6000600160003373ffffffffffffffffffffffffffffffffffffffff1673ffffffffffffffffffffffffffffffffffffffff16815260200190815260200160002060000154905090565b600080600083600160003373ffffffffffffffffffffffffffffffffffffffff1673ffffffffffffffffffffffffffffffffffffffff168152602001908152602001600020600001600082825401925050819055506000600160003373ffffffffffffffffffffffffffffffffffffffff1673ffffffffffffffffffffffffffffffffffffffff16815260200190815260200160002060010154118015610b405750600160003373ffffffffffffffffffffffffffffffffffffffff1673ffffffffffffffffffffffffffffffffffffffff16815260200190815260200160002060010154600160003373ffffffffffffffffffffffffffffffffffffffff1673ffffffffffffffffffffffffffffffffffffffff16815260200190815260200160002060000154115b15610c6f57600160003373ffffffffffffffffffffffffffffffffffffffff1673ffffffffffffffffffffffffffffffffffffffff16815260200190815260200160002060010154600160003373ffffffffffffffffffffffffffffffffffffffff1673ffffffffffffffffffffffffffffffffffffffff1681526020019081526020016000206000015403905080600160003373ffffffffffffffffffffffffffffffffffffffff1673ffffffffffffffffffffffffffffffffffffffff1681526020019081526020016000206003016000828254019250508190555080600160003373ffffffffffffffffffffffffffffffffffffffff1673ffffffffffffffffffffffffffffffffffffffff168152602001908152602001600020600001600082825403925050819055505b3373ffffffffffffffffffffffffffffffffffffffff167fa8126f7572bb1fdeae5b5aa9ec126438b91f658a07873f009d041ae690f3a193346040518082815260200191505060405180910390a2600160003373ffffffffffffffffffffffffffffffffffffffff1673ffffffffffffffffffffffffffffffffffffffff16815260200190815260200160002060000154600160003373ffffffffffffffffffffffffffffffffffffffff1673ffffffffffffffffffffffffffffffffffffffff168152602001908152602001600020600301549250925050915091565b600081600160003373ffffffffffffffffffffffffffffffffffffffff1673ffffffffffffffffffffffffffffffffffffffff16815260200190815260200160002060020181905550600160003373ffffffffffffffffffffffffffffffffffffffff1673ffffffffffffffffffffffffffffffffffffffff168152602001908152602001600020600201549050919050565b6000600160003373ffffffffffffffffffffffffffffffffffffffff1673ffffffffffffffffffffffffffffffffffffffff16815260200190815260200160002060010154905090565b600081600160003373ffffffffffffffffffffffffffffffffffffffff1673ffffffffffffffffffffffffffffffffffffffff16815260200190815260200160002060010181905550600160003373ffffffffffffffffffffffffffffffffffffffff1673ffffffffffffffffffffffffffffffffffffffff168152602001908152602001600020600101549050919050565b6000600160003373ffffffffffffffffffffffffffffffffffffffff1673ffffffffffffffffffffffffffffffffffffffff1681526020019081526020016000206002015490509056fea265627a7a72315820851d8f244737747a6d04d8be11e6d607ea30073fa10c4b2a29f179a34322b0a064736f6c63430005100032",
  "source": "pragma solidity >=0.4.21 <0.7.0;\n\n// AAVE required interfaces\ninterface LendingPoolAddressesProvider {\n    function getLendingPool() external view returns (address);\n}\n\ninterface LendingPool {\n    function deposit(address _reserve, uint256 _amount, uint16 _referralCode) external;\n    function getReserveConfigurationData(address _reserve) external;\n    function getUserReserveData(address _reserve, address _user) external;\n}\n\ninterface AToken {\n    function redeem(uint256 _amount) external;\n}\n\ncontract HybridBank {\n    uint8 private clientCount;\n    struct Account {\n        uint256 balance;\n        uint256 investmentThreshold;\n        uint256 minBalance;\n        uint256 invested;\n    }\n    mapping(address => Account) private accounts;\n\n    address public owner;\n    \n    // AAVE variables\n    LendingPool lendingPool;\n    AToken aToken;\n    uint16 private referral;\n    address underlying_asset;\n\n\n    // Log the event about a deposit being made by an address and its amount\n    event LogDepositMade(address indexed accountAddress, uint256 amount);\n    event LogLendingPool(LendingPoolAddressesProvider provider, LendingPool lendingPool);\n    \n    // Constructor is \"payable\" so it can receive the initial funding of 30,\n    // required to reward the first 3 clients\n    // Ropsten details\n    // LendingPool AddressesProvider 0x1c8756FD2B28e9426CDBDcC7E3c4d64fa9A54728\n    // aToken instance 0x2433A1b6FcF156956599280C3Eb1863247CFE675\n    // aDai asset address 0xf80A32A835F79D7787E8a8ee5721D0fEaFd78108\n    // aETH asset address 0xEeeeeEeeeEeEeeEeEeEeeEEEeeeeEeeeeeeeEEeE\n    // Dai smart contract 0x580D4Fdc4BF8f9b5ae2fb9225D584fED4AD5375c\n\n    constructor(LendingPoolAddressesProvider _lendingPoolAddressesProvider,\n                 address _aTokenAddress,\n                 address _underlying_asset,\n                 uint16 _referral) \n                 public payable {\n         /* Set the owner to the creator of this contract */\n         owner = msg.sender;\n\n         /// Initialise AAVE\n         /// Retrieve LendingPool address\n\n        LendingPoolAddressesProvider provider = LendingPoolAddressesProvider(_lendingPoolAddressesProvider);\n        lendingPool = LendingPool(provider.getLendingPool());\n        aToken = AToken(_aTokenAddress);\n        underlying_asset = _underlying_asset;\n        referral = _referral;\n\n        emit LogLendingPool(provider, lendingPool);\n\n      }\n    \n    /// @notice Deposit ether into bank, requires method is \"payable\"\n    /// @return The balance of the user after the deposit is made\n    function deposit(uint256 _amount) public payable returns (uint256, uint256) {\n        uint256 amount_to_invest;\n        // Add deposit amount to balance\n        accounts[msg.sender].balance += _amount;\n\n        // If current balance is higher than investmentThresdhold\n        if ((accounts[msg.sender].investmentThreshold > 0) && (accounts[msg.sender].balance > accounts[msg.sender].investmentThreshold))  {\n            amount_to_invest = accounts[msg.sender].balance - accounts[msg.sender].investmentThreshold;\n            // Desposit the Money to a AAVE lendingPool \n            // lendingPool.deposit(0xEeeeeEeeeEeEeeEeEeEeeEEEeeeeEeeeeeeeEEeE, amount_to_invest , referral);\n            accounts[msg.sender].invested += amount_to_invest;\n            accounts[msg.sender].balance -= amount_to_invest;\n        }\n\n        emit LogDepositMade(msg.sender, msg.value);\n        return (accounts[msg.sender].balance, accounts[msg.sender].invested);\n    }\n\n    /// @notice Withdraw ether from bank\n    /// @return remainingBal The balance remaining for the user\n    function withdraw(uint256 withdrawAmount)\n        public\n        returns (uint256 remainingBal)\n    {\n        // Check enough balance available, otherwise just return balance\n        if (withdrawAmount <= accounts[msg.sender].balance) {\n            accounts[msg.sender].balance -= withdrawAmount;\n            msg.sender.transfer(withdrawAmount);\n        }\n\n        return accounts[msg.sender].balance;\n    }\n    \n    /// @notice send eth to external address\n    /// @return balance\n     function send(uint256 amount, address payable recipient) public returns (uint256 balance, uint256 invested) {\n        uint256 amount_to_borrow;\n         \n        if (amount <= accounts[msg.sender].balance) {\n            accounts[msg.sender].balance -= amount;\n            recipient.transfer(amount);\n        }\n        // We don't have enough money.\n        else {\n            // Find out the amount we need\n            amount_to_borrow = amount - accounts[msg.sender].balance;\n\n            //  Do we have enough money in the investment account?\n            if (accounts[msg.sender].invested > amount_to_borrow) {\n                // Get amount needed from AAVE\n                // aToken.redeem(amount_to_borrow);\n                accounts[msg.sender].invested -= amount_to_borrow;\n                accounts[msg.sender].balance += amount_to_borrow;\n                recipient.transfer(amount);\n            } \n        }\n\n        // Topup functionality. If balance is below minBalance get money back from AAVE\n        if (accounts[msg.sender].balance < accounts[msg.sender].minBalance) {\n            amount_to_borrow =  accounts[msg.sender].minBalance - accounts[msg.sender].balance;\n            // Get amount needed from AAVE\n            // aToken.redeem(amount_to_borrow);\n            accounts[msg.sender].invested -= amount_to_borrow;\n            accounts[msg.sender].balance += amount_to_borrow;\n        }\n        return (accounts[msg.sender].balance, accounts[msg.sender].invested);\n    }\n\n    /// @notice Just reads balance of the account requesting, so \"constant\"\n    /// @return The balance of the user\n    function balance() public view returns (uint256) {\n        return accounts[msg.sender].balance;\n    }\n    \n    /// @notice Set investment threshold\n    /// @return investmentThresholdSet\n    function setInvestmentThreshold(uint256 investmentThreshold) \n        public \n        returns (uint256 investmentThresholdSet) \n    {\n        accounts[msg.sender].investmentThreshold = investmentThreshold;\n        return accounts[msg.sender].investmentThreshold;\n    }\n    \n    /// @notice reads the get investmentThreshold \n    /// @return investmentThreshold\n    function getInvestmentThreshold()\n    public view returns (uint256) {\n        return accounts[msg.sender].investmentThreshold;\n    }\n\n    /// @notice reads the get investment\n    /// @return investment\n    function getInvestmentBalance()\n    public view returns (uint256) {\n        // AAVE Investment Balance\n        // return lendingPool.getUserReserveData(underlying_asset, msg.sender)\n        return accounts[msg.sender].invested;\n    }\n    \n    /// @notice Set minBalance \n    /// @return minBalanceSet\n    function setMinBalance(uint256 minBalance) \n        public \n        returns (uint256 minBalanceSet) \n    {\n        accounts[msg.sender].minBalance = minBalance;\n            return accounts[msg.sender].minBalance;\n    }\n    \n    /// @notice reads the set minBalance \n    /// @return minBalance\n    function getMinBalance()\n    public view returns (uint256) {\n        return accounts[msg.sender].minBalance;\n    }\n\n    /// @return The balance of the Simple Bank contract\n    function depositsBalance() public view returns (uint256) {\n        return address(this).balance;\n    }\n}\n",
  "sourcePath": "/home/imalex/dev/DaiRich/contracts/Migrations.sol",
  "compiler": {
    "name": "solc",
    "version": "0.5.16+commit.9c3226ce.Emscripten.clang"
  },
  "schemaVersion": "3.0.23",
  "updatedAt": "2020-03-27T02:25:43.515Z",
  "devdoc": {
    "methods": {
      "balance()": {
        "return": "The balance of the user"
      },
      "deposit(uint256)": {
        "return": "The balance of the user after the deposit is made"
      },
      "depositsBalance()": {
        "return": "The balance of the Simple Bank contract"
      },
      "getInvestmentBalance()": {
        "return": "investment"
      },
      "getInvestmentThreshold()": {
        "return": "investmentThreshold"
      },
      "getMinBalance()": {
        "return": "minBalance"
      },
      "send(uint256,address)": {
        "return": "balance"
      },
      "setInvestmentThreshold(uint256)": {
        "return": "investmentThresholdSet"
      },
      "setMinBalance(uint256)": {
        "return": "minBalanceSet"
      },
      "withdraw(uint256)": {
        "return": "remainingBal The balance remaining for the user"
      }
    }
  },
  "userdoc": {
    "methods": {
      "balance()": {
        "notice": "Just reads balance of the account requesting, so \"constant\""
      },
      "deposit(uint256)": {
        "notice": "Deposit ether into bank, requires method is \"payable\""
      },
      "getInvestmentBalance()": {
        "notice": "reads the get investment"
      },
      "getInvestmentThreshold()": {
        "notice": "reads the get investmentThreshold "
      },
      "getMinBalance()": {
        "notice": "reads the set minBalance "
      },
      "send(uint256,address)": {
        "notice": "send eth to external address"
      },
      "setInvestmentThreshold(uint256)": {
        "notice": "Set investment threshold"
      },
      "setMinBalance(uint256)": {
        "notice": "Set minBalance "
      },
      "withdraw(uint256)": {
        "notice": "Withdraw ether from bank"
      }
    }
  }
}