{
  "contractName": "HybridBank",
  "abi": [
    {
      "inputs": [
        {
          "internalType": "contract ILendingPoolAddressesProvider",
          "name": "_lendingPoolAddressesProvider",
          "type": "address"
        },
        {
          "internalType": "contract IERC20",
          "name": "_inboundCurrency",
          "type": "address"
        },
        {
          "internalType": "contract IERC20",
          "name": "_interestCurrency",
          "type": "address"
        }
      ],
      "payable": false,
      "stateMutability": "nonpayable",
      "type": "constructor"
    },
    {
      "anonymous": false,
      "inputs": [
        {
          "indexed": true,
          "internalType": "address",
          "name": "from",
          "type": "address"
        },
        {
          "indexed": true,
          "internalType": "address",
          "name": "to",
          "type": "address"
        },
        {
          "indexed": false,
          "internalType": "contract IERC20",
          "name": "token",
          "type": "address"
        }
      ],
      "name": "LogApproveERC20ToAAVE",
      "type": "event"
    },
    {
      "anonymous": false,
      "inputs": [
        {
          "indexed": true,
          "internalType": "address",
          "name": "accountAddress",
          "type": "address"
        },
        {
          "indexed": false,
          "internalType": "uint256",
          "name": "amount",
          "type": "uint256"
        }
      ],
      "name": "LogDepositMade",
      "type": "event"
    },
    {
      "anonymous": false,
      "inputs": [
        {
          "indexed": true,
          "internalType": "address",
          "name": "accountAddress",
          "type": "address"
        },
        {
          "indexed": false,
          "internalType": "uint256",
          "name": "amount",
          "type": "uint256"
        }
      ],
      "name": "LogInvestmentMade",
      "type": "event"
    },
    {
      "anonymous": false,
      "inputs": [
        {
          "indexed": false,
          "internalType": "contract ILendingPool",
          "name": "lendingPoolAddressProvider",
          "type": "address"
        }
      ],
      "name": "LogLendingPool",
      "type": "event"
    },
    {
      "anonymous": false,
      "inputs": [
        {
          "indexed": false,
          "internalType": "address",
          "name": "lendingPoolCore",
          "type": "address"
        }
      ],
      "name": "LogLendingPoolCore",
      "type": "event"
    },
    {
      "anonymous": false,
      "inputs": [
        {
          "indexed": true,
          "internalType": "address",
          "name": "previousOwner",
          "type": "address"
        },
        {
          "indexed": true,
          "internalType": "address",
          "name": "newOwner",
          "type": "address"
        }
      ],
      "name": "OwnershipTransferred",
      "type": "event"
    },
    {
      "constant": true,
      "inputs": [],
      "name": "isOwner",
      "outputs": [
        {
          "internalType": "bool",
          "name": "",
          "type": "bool"
        }
      ],
      "payable": false,
      "stateMutability": "view",
      "type": "function"
    },
    {
      "constant": true,
      "inputs": [],
      "name": "lendingPoolAddressProvider",
      "outputs": [
        {
          "internalType": "contract ILendingPoolAddressesProvider",
          "name": "",
          "type": "address"
        }
      ],
      "payable": false,
      "stateMutability": "view",
      "type": "function"
    },
    {
      "constant": true,
      "inputs": [],
      "name": "owner",
      "outputs": [
        {
          "internalType": "address",
          "name": "",
          "type": "address"
        }
      ],
      "payable": false,
      "stateMutability": "view",
      "type": "function"
    },
    {
      "constant": false,
      "inputs": [],
      "name": "renounceOwnership",
      "outputs": [],
      "payable": false,
      "stateMutability": "nonpayable",
      "type": "function"
    },
    {
      "constant": false,
      "inputs": [
        {
          "internalType": "address",
          "name": "newOwner",
          "type": "address"
        }
      ],
      "name": "transferOwnership",
      "outputs": [],
      "payable": false,
      "stateMutability": "nonpayable",
      "type": "function"
    },
    {
      "constant": false,
      "inputs": [],
      "name": "enroll",
      "outputs": [],
      "payable": false,
      "stateMutability": "nonpayable",
      "type": "function"
    },
    {
      "constant": false,
      "inputs": [
        {
          "internalType": "uint256",
          "name": "_amount",
          "type": "uint256"
        }
      ],
      "name": "deposit",
      "outputs": [
        {
          "internalType": "uint256",
          "name": "",
          "type": "uint256"
        },
        {
          "internalType": "uint256",
          "name": "",
          "type": "uint256"
        }
      ],
      "payable": false,
      "stateMutability": "nonpayable",
      "type": "function"
    },
    {
      "constant": false,
      "inputs": [
        {
          "internalType": "address",
          "name": "_recipient",
          "type": "address"
        },
        {
          "internalType": "uint256",
          "name": "_amount",
          "type": "uint256"
        }
      ],
      "name": "pay",
      "outputs": [
        {
          "internalType": "uint256",
          "name": "balance",
          "type": "uint256"
        },
        {
          "internalType": "uint256",
          "name": "invested",
          "type": "uint256"
        }
      ],
      "payable": false,
      "stateMutability": "nonpayable",
      "type": "function"
    },
    {
      "constant": true,
      "inputs": [],
      "name": "balance",
      "outputs": [
        {
          "internalType": "uint256",
          "name": "",
          "type": "uint256"
        },
        {
          "internalType": "uint256",
          "name": "",
          "type": "uint256"
        },
        {
          "internalType": "uint256",
          "name": "",
          "type": "uint256"
        }
      ],
      "payable": false,
      "stateMutability": "view",
      "type": "function"
    },
    {
      "constant": false,
      "inputs": [
        {
          "internalType": "uint256",
          "name": "investmentThreshold",
          "type": "uint256"
        }
      ],
      "name": "setInvestmentThreshold",
      "outputs": [
        {
          "internalType": "uint256",
          "name": "investmentThresholdSet",
          "type": "uint256"
        }
      ],
      "payable": false,
      "stateMutability": "nonpayable",
      "type": "function"
    },
    {
      "constant": true,
      "inputs": [],
      "name": "getInvestmentThreshold",
      "outputs": [
        {
          "internalType": "uint256",
          "name": "",
          "type": "uint256"
        }
      ],
      "payable": false,
      "stateMutability": "view",
      "type": "function"
    },
    {
      "constant": true,
      "inputs": [],
      "name": "getInvestmentBalance",
      "outputs": [
        {
          "internalType": "uint256",
          "name": "",
          "type": "uint256"
        }
      ],
      "payable": false,
      "stateMutability": "view",
      "type": "function"
    },
    {
      "constant": false,
      "inputs": [
        {
          "internalType": "uint256",
          "name": "minBalance",
          "type": "uint256"
        }
      ],
      "name": "setMinBalance",
      "outputs": [
        {
          "internalType": "uint256",
          "name": "minBalanceSet",
          "type": "uint256"
        }
      ],
      "payable": false,
      "stateMutability": "nonpayable",
      "type": "function"
    },
    {
      "constant": true,
      "inputs": [],
      "name": "getMinBalance",
      "outputs": [
        {
          "internalType": "uint256",
          "name": "",
          "type": "uint256"
        }
      ],
      "payable": false,
      "stateMutability": "view",
      "type": "function"
    },
    {
      "constant": true,
      "inputs": [],
      "name": "getTotalDeposits",
      "outputs": [
        {
          "internalType": "uint256",
          "name": "",
          "type": "uint256"
        }
      ],
      "payable": false,
      "stateMutability": "view",
      "type": "function"
    },
    {
      "constant": true,
      "inputs": [],
      "name": "getTotalInvested",
      "outputs": [
        {
          "internalType": "uint256",
          "name": "",
          "type": "uint256"
        }
      ],
      "payable": false,
      "stateMutability": "view",
      "type": "function"
    },
    {
      "constant": true,
      "inputs": [],
      "name": "getContractDAIBalance",
      "outputs": [
        {
          "internalType": "uint256",
          "name": "",
          "type": "uint256"
        }
      ],
      "payable": false,
      "stateMutability": "view",
      "type": "function"
    },
    {
      "constant": true,
      "inputs": [],
      "name": "getContractAAVEBalance",
      "outputs": [
        {
          "internalType": "uint256",
          "name": "",
          "type": "uint256"
        }
      ],
      "payable": false,
      "stateMutability": "view",
      "type": "function"
    },
    {
      "constant": true,
      "inputs": [],
      "name": "getClientCount",
      "outputs": [
        {
          "internalType": "uint256",
          "name": "",
          "type": "uint256"
        }
      ],
      "payable": false,
      "stateMutability": "view",
      "type": "function"
    }
  ],
  "bytecode": "0x60806040523480156200001157600080fd5b506040516200302f3803806200302f833981810160405260608110156200003757600080fd5b8101908080519060200190929190805190602001909291908051906020019092919050505060006200006e620004bf60201b60201c565b9050806000806101000a81548173ffffffffffffffffffffffffffffffffffffffff021916908373ffffffffffffffffffffffffffffffffffffffff1602179055508073ffffffffffffffffffffffffffffffffffffffff16600073ffffffffffffffffffffffffffffffffffffffff167f8be0079c531659141344cd1fd0a4f28419497f9722a3daafe3b4186f6b6457e060405160405180910390a35081600560006101000a81548173ffffffffffffffffffffffffffffffffffffffff021916908373ffffffffffffffffffffffffffffffffffffffff16021790555080600660006101000a81548173ffffffffffffffffffffffffffffffffffffffff021916908373ffffffffffffffffffffffffffffffffffffffff16021790555082600760006101000a81548173ffffffffffffffffffffffffffffffffffffffff021916908373ffffffffffffffffffffffffffffffffffffffff1602179055506000600181905550600060028190555060006003819055506000600760009054906101000a900473ffffffffffffffffffffffffffffffffffffffff1673ffffffffffffffffffffffffffffffffffffffff1663ed6ff7606040518163ffffffff1660e01b815260040160206040518083038186803b1580156200025257600080fd5b505afa15801562000267573d6000803e3d6000fd5b505050506040513d60208110156200027e57600080fd5b810190808051906020019092919050505090507fb62fa6d17398bc19a3e582232fef6a7c8366f56aba9a8341f3de0a68a922a3da81604051808273ffffffffffffffffffffffffffffffffffffffff1673ffffffffffffffffffffffffffffffffffffffff16815260200191505060405180910390a160007fffffffffffffffffffffffffffffffffffffffffffffffffffffffffffffffff9050600560009054906101000a900473ffffffffffffffffffffffffffffffffffffffff1673ffffffffffffffffffffffffffffffffffffffff1663095ea7b383836040518363ffffffff1660e01b8152600401808373ffffffffffffffffffffffffffffffffffffffff1673ffffffffffffffffffffffffffffffffffffffff16815260200182815260200192505050602060405180830381600087803b158015620003c357600080fd5b505af1158015620003d8573d6000803e3d6000fd5b505050506040513d6020811015620003ef57600080fd5b8101908080519060200190929190505050508173ffffffffffffffffffffffffffffffffffffffff163373ffffffffffffffffffffffffffffffffffffffff167f0d1de9401f059ff256d56fbe448a2346a1320aaed9948cac97d0cb76a59a51ea600560009054906101000a900473ffffffffffffffffffffffffffffffffffffffff16604051808273ffffffffffffffffffffffffffffffffffffffff1673ffffffffffffffffffffffffffffffffffffffff16815260200191505060405180910390a35050505050620004c7565b600033905090565b612b5880620004d76000396000f3fe608060405234801561001057600080fd5b50600436106101215760003560e01c8063b69ef8a8116100ad578063cb6a08b111610071578063cb6a08b1146103ba578063dee2772b146103d8578063e4fae4e41461041a578063e65f2a7e14610438578063f2fde38b1461044257610121565b8063b69ef8a81461027c578063b6b55f25146102a8578063bb4bb0ac146102f1578063c40768761461030f578063c91d956c1461037857610121565b806363380300116100f4578063633803001461019e578063715018a6146101e85780638da5cb5b146101f25780638f32d59b1461023c5780639a74c81f1461025e57610121565b8063168a4822146101265780635345a85c146101445780635a81018a146101625780635f94573314610180575b600080fd5b61012e610486565b6040518082815260200191505060405180910390f35b61014c610490565b6040518082815260200191505060405180910390f35b61016a6104da565b6040518082815260200191505060405180910390f35b61018861055e565b6040518082815260200191505060405180910390f35b6101a6610568565b604051808273ffffffffffffffffffffffffffffffffffffffff1673ffffffffffffffffffffffffffffffffffffffff16815260200191505060405180910390f35b6101f061058e565b005b6101fa6106c7565b604051808273ffffffffffffffffffffffffffffffffffffffff1673ffffffffffffffffffffffffffffffffffffffff16815260200191505060405180910390f35b6102446106f0565b604051808215151515815260200191505060405180910390f35b61026661074e565b6040518082815260200191505060405180910390f35b61028461082f565b60405180848152602001838152602001828152602001935050505060405180910390f35b6102d4600480360360208110156102be57600080fd5b8101908080359060200190929190505050610af3565b604051808381526020018281526020019250505060405180910390f35b6102f961113f565b6040518082815260200191505060405180910390f35b61035b6004803603604081101561032557600080fd5b81019080803573ffffffffffffffffffffffffffffffffffffffff1690602001909291908035906020019092919050505061129a565b604051808381526020018281526020019250505060405180910390f35b6103a46004803603602081101561038e57600080fd5b8101908080359060200190929190505050611bdb565b6040518082815260200191505060405180910390f35b6103c2611c6e565b6040518082815260200191505060405180910390f35b610404600480360360208110156103ee57600080fd5b8101908080359060200190929190505050611cb8565b6040518082815260200191505060405180910390f35b610422611d4b565b6040518082815260200191505060405180910390f35b610440611d95565b005b6104846004803603602081101561045857600080fd5b81019080803573ffffffffffffffffffffffffffffffffffffffff169060200190929190505050611e94565b005b6000600254905090565b6000600460003373ffffffffffffffffffffffffffffffffffffffff1673ffffffffffffffffffffffffffffffffffffffff16815260200190815260200160002060030154905090565b60006104e46106f0565b610556576040517f08c379a00000000000000000000000000000000000000000000000000000000081526004018080602001828103825260208152602001807f4f776e61626c653a2063616c6c6572206973206e6f7420746865206f776e657281525060200191505060405180910390fd5b600154905090565b6000600354905090565b600760009054906101000a900473ffffffffffffffffffffffffffffffffffffffff1681565b6105966106f0565b610608576040517f08c379a00000000000000000000000000000000000000000000000000000000081526004018080602001828103825260208152602001807f4f776e61626c653a2063616c6c6572206973206e6f7420746865206f776e657281525060200191505060405180910390fd5b600073ffffffffffffffffffffffffffffffffffffffff166000809054906101000a900473ffffffffffffffffffffffffffffffffffffffff1673ffffffffffffffffffffffffffffffffffffffff167f8be0079c531659141344cd1fd0a4f28419497f9722a3daafe3b4186f6b6457e060405160405180910390a360008060006101000a81548173ffffffffffffffffffffffffffffffffffffffff021916908373ffffffffffffffffffffffffffffffffffffffff160217905550565b60008060009054906101000a900473ffffffffffffffffffffffffffffffffffffffff16905090565b60008060009054906101000a900473ffffffffffffffffffffffffffffffffffffffff1673ffffffffffffffffffffffffffffffffffffffff16610732611f1a565b73ffffffffffffffffffffffffffffffffffffffff1614905090565b6000600560009054906101000a900473ffffffffffffffffffffffffffffffffffffffff1673ffffffffffffffffffffffffffffffffffffffff166370a08231306040518263ffffffff1660e01b8152600401808273ffffffffffffffffffffffffffffffffffffffff1673ffffffffffffffffffffffffffffffffffffffff16815260200191505060206040518083038186803b1580156107ef57600080fd5b505afa158015610803573d6000803e3d6000fd5b505050506040513d602081101561081957600080fd5b8101908080519060200190929190505050905090565b6000806000600460003373ffffffffffffffffffffffffffffffffffffffff1673ffffffffffffffffffffffffffffffffffffffff16815260200190815260200160002060040160009054906101000a900460ff166108d9576040517f08c379a0000000000000000000000000000000000000000000000000000000008152600401808060200182810382526024815260200180612b006024913960400191505060405180910390fd5b6000806000600460003373ffffffffffffffffffffffffffffffffffffffff1673ffffffffffffffffffffffffffffffffffffffff168152602001908152602001600020600301541115610a5a57600354600460003373ffffffffffffffffffffffffffffffffffffffff1673ffffffffffffffffffffffffffffffffffffffff168152602001908152602001600020600301548161097457fe5b04915081600660009054906101000a900473ffffffffffffffffffffffffffffffffffffffff1673ffffffffffffffffffffffffffffffffffffffff166370a08231306040518263ffffffff1660e01b8152600401808273ffffffffffffffffffffffffffffffffffffffff1673ffffffffffffffffffffffffffffffffffffffff16815260200191505060206040518083038186803b158015610a1757600080fd5b505afa158015610a2b573d6000803e3d6000fd5b505050506040513d6020811015610a4157600080fd5b8101908080519060200190929190505050029050610a5f565b600090505b600460003373ffffffffffffffffffffffffffffffffffffffff1673ffffffffffffffffffffffffffffffffffffffff16815260200190815260200160002060000154600460003373ffffffffffffffffffffffffffffffffffffffff1673ffffffffffffffffffffffffffffffffffffffff16815260200190815260200160002060030154829450945094505050909192565b600080600460003373ffffffffffffffffffffffffffffffffffffffff1673ffffffffffffffffffffffffffffffffffffffff16815260200190815260200160002060040160009054906101000a900460ff16610b9b576040517f08c379a0000000000000000000000000000000000000000000000000000000008152600401808060200182810382526024815260200180612b006024913960400191505060405180910390fd5b600083600560009054906101000a900473ffffffffffffffffffffffffffffffffffffffff1673ffffffffffffffffffffffffffffffffffffffff1663dd62ed3e33306040518363ffffffff1660e01b8152600401808373ffffffffffffffffffffffffffffffffffffffff1673ffffffffffffffffffffffffffffffffffffffff1681526020018273ffffffffffffffffffffffffffffffffffffffff1673ffffffffffffffffffffffffffffffffffffffff1681526020019250505060206040518083038186803b158015610c7157600080fd5b505afa158015610c85573d6000803e3d6000fd5b505050506040513d6020811015610c9b57600080fd5b81019080805190602001909291905050501015610d03576040517f08c379a0000000000000000000000000000000000000000000000000000000008152600401808060200182810382526044815260200180612abc6044913960600191505060405180910390fd5b60011515600560009054906101000a900473ffffffffffffffffffffffffffffffffffffffff1673ffffffffffffffffffffffffffffffffffffffff166323b872dd3330886040518463ffffffff1660e01b8152600401808473ffffffffffffffffffffffffffffffffffffffff1673ffffffffffffffffffffffffffffffffffffffff1681526020018373ffffffffffffffffffffffffffffffffffffffff1673ffffffffffffffffffffffffffffffffffffffff1681526020018281526020019350505050602060405180830381600087803b158015610de457600080fd5b505af1158015610df8573d6000803e3d6000fd5b505050506040513d6020811015610e0e57600080fd5b8101908080519060200190929190505050151514610e94576040517f08c379a000000000000000000000000000000000000000000000000000000000815260040180806020018281038252600f8152602001807f5472616e73666572206661696c6564000000000000000000000000000000000081525060200191505060405180910390fd5b83600460003373ffffffffffffffffffffffffffffffffffffffff1673ffffffffffffffffffffffffffffffffffffffff16815260200190815260200160002060000160008282540192505081905550836002600082825401925050819055506000600460003373ffffffffffffffffffffffffffffffffffffffff1673ffffffffffffffffffffffffffffffffffffffff16815260200190815260200160002060010154118015610fc95750600460003373ffffffffffffffffffffffffffffffffffffffff1673ffffffffffffffffffffffffffffffffffffffff16815260200190815260200160002060010154600460003373ffffffffffffffffffffffffffffffffffffffff1673ffffffffffffffffffffffffffffffffffffffff16815260200190815260200160002060000154115b1561106157600460003373ffffffffffffffffffffffffffffffffffffffff1673ffffffffffffffffffffffffffffffffffffffff16815260200190815260200160002060010154600460003373ffffffffffffffffffffffffffffffffffffffff1673ffffffffffffffffffffffffffffffffffffffff1681526020019081526020016000206000015403905061106081611f22565b5b3373ffffffffffffffffffffffffffffffffffffffff167fa8126f7572bb1fdeae5b5aa9ec126438b91f658a07873f009d041ae690f3a193856040518082815260200191505060405180910390a2600460003373ffffffffffffffffffffffffffffffffffffffff1673ffffffffffffffffffffffffffffffffffffffff16815260200190815260200160002060000154600460003373ffffffffffffffffffffffffffffffffffffffff1673ffffffffffffffffffffffffffffffffffffffff168152602001908152602001600020600301549250925050915091565b60006111496106f0565b6111bb576040517f08c379a00000000000000000000000000000000000000000000000000000000081526004018080602001828103825260208152602001807f4f776e61626c653a2063616c6c6572206973206e6f7420746865206f776e657281525060200191505060405180910390fd5b600660009054906101000a900473ffffffffffffffffffffffffffffffffffffffff1673ffffffffffffffffffffffffffffffffffffffff166370a08231306040518263ffffffff1660e01b8152600401808273ffffffffffffffffffffffffffffffffffffffff1673ffffffffffffffffffffffffffffffffffffffff16815260200191505060206040518083038186803b15801561125a57600080fd5b505afa15801561126e573d6000803e3d6000fd5b505050506040513d602081101561128457600080fd5b8101908080519060200190929190505050905090565b600080600460003373ffffffffffffffffffffffffffffffffffffffff1673ffffffffffffffffffffffffffffffffffffffff16815260200190815260200160002060040160009054906101000a900460ff16611342576040517f08c379a0000000000000000000000000000000000000000000000000000000008152600401808060200182810382526024815260200180612b006024913960400191505060405180910390fd5b6000600460003373ffffffffffffffffffffffffffffffffffffffff1673ffffffffffffffffffffffffffffffffffffffff1681526020019081526020016000206000015484116114d757600560009054906101000a900473ffffffffffffffffffffffffffffffffffffffff1673ffffffffffffffffffffffffffffffffffffffff1663a9059cbb86866040518363ffffffff1660e01b8152600401808373ffffffffffffffffffffffffffffffffffffffff1673ffffffffffffffffffffffffffffffffffffffff16815260200182815260200192505050602060405180830381600087803b15801561143657600080fd5b505af115801561144a573d6000803e3d6000fd5b505050506040513d602081101561146057600080fd5b81019080805190602001909291905050505083600460003373ffffffffffffffffffffffffffffffffffffffff1673ffffffffffffffffffffffffffffffffffffffff1681526020019081526020016000206000016000828254039250508190555083600260008282540392505081905550611ab4565b600460003373ffffffffffffffffffffffffffffffffffffffff1673ffffffffffffffffffffffffffffffffffffffff168152602001908152602001600020600001548403905080600460003373ffffffffffffffffffffffffffffffffffffffff1673ffffffffffffffffffffffffffffffffffffffff16815260200190815260200160002060030154111561161657611571816121fc565b80600460003373ffffffffffffffffffffffffffffffffffffffff1673ffffffffffffffffffffffffffffffffffffffff1681526020019081526020016000206003016000828254039250508190555080600460003373ffffffffffffffffffffffffffffffffffffffff1673ffffffffffffffffffffffffffffffffffffffff1681526020019081526020016000206000016000828254019250508190555061196e565b80600560009054906101000a900473ffffffffffffffffffffffffffffffffffffffff1673ffffffffffffffffffffffffffffffffffffffff1663dd62ed3e33306040518363ffffffff1660e01b8152600401808373ffffffffffffffffffffffffffffffffffffffff1673ffffffffffffffffffffffffffffffffffffffff1681526020018273ffffffffffffffffffffffffffffffffffffffff1673ffffffffffffffffffffffffffffffffffffffff1681526020019250505060206040518083038186803b1580156116ea57600080fd5b505afa1580156116fe573d6000803e3d6000fd5b505050506040513d602081101561171457600080fd5b8101908080519060200190929190505050101561177c576040517f08c379a0000000000000000000000000000000000000000000000000000000008152600401808060200182810382526044815260200180612abc6044913960600191505060405180910390fd5b60011515600560009054906101000a900473ffffffffffffffffffffffffffffffffffffffff1673ffffffffffffffffffffffffffffffffffffffff166323b872dd3330856040518463ffffffff1660e01b8152600401808473ffffffffffffffffffffffffffffffffffffffff1673ffffffffffffffffffffffffffffffffffffffff1681526020018373ffffffffffffffffffffffffffffffffffffffff1673ffffffffffffffffffffffffffffffffffffffff1681526020018281526020019350505050602060405180830381600087803b15801561185d57600080fd5b505af1158015611871573d6000803e3d6000fd5b505050506040513d602081101561188757600080fd5b810190808051906020019092919050505015151461190d576040517f08c379a000000000000000000000000000000000000000000000000000000000815260040180806020018281038252600f8152602001807f5472616e73666572206661696c6564000000000000000000000000000000000081525060200191505060405180910390fd5b80600460003373ffffffffffffffffffffffffffffffffffffffff1673ffffffffffffffffffffffffffffffffffffffff16815260200190815260200160002060000160008282540192505081905550806002600082825401925050819055505b600560009054906101000a900473ffffffffffffffffffffffffffffffffffffffff1673ffffffffffffffffffffffffffffffffffffffff1663a9059cbb86866040518363ffffffff1660e01b8152600401808373ffffffffffffffffffffffffffffffffffffffff1673ffffffffffffffffffffffffffffffffffffffff16815260200182815260200192505050602060405180830381600087803b158015611a1757600080fd5b505af1158015611a2b573d6000803e3d6000fd5b505050506040513d6020811015611a4157600080fd5b81019080805190602001909291905050505083600460003373ffffffffffffffffffffffffffffffffffffffff1673ffffffffffffffffffffffffffffffffffffffff16815260200190815260200160002060000160008282540392505081905550836002600082825403925050819055505b600460003373ffffffffffffffffffffffffffffffffffffffff1673ffffffffffffffffffffffffffffffffffffffff16815260200190815260200160002060020154600460003373ffffffffffffffffffffffffffffffffffffffff1673ffffffffffffffffffffffffffffffffffffffff168152602001908152602001600020600001541015611b4957611b48612473565b5b600460003373ffffffffffffffffffffffffffffffffffffffff1673ffffffffffffffffffffffffffffffffffffffff16815260200190815260200160002060000154600460003373ffffffffffffffffffffffffffffffffffffffff1673ffffffffffffffffffffffffffffffffffffffff1681526020019081526020016000206003015492509250509250929050565b600081600460003373ffffffffffffffffffffffffffffffffffffffff1673ffffffffffffffffffffffffffffffffffffffff16815260200190815260200160002060020181905550600460003373ffffffffffffffffffffffffffffffffffffffff1673ffffffffffffffffffffffffffffffffffffffff168152602001908152602001600020600201549050919050565b6000600460003373ffffffffffffffffffffffffffffffffffffffff1673ffffffffffffffffffffffffffffffffffffffff16815260200190815260200160002060010154905090565b600081600460003373ffffffffffffffffffffffffffffffffffffffff1673ffffffffffffffffffffffffffffffffffffffff16815260200190815260200160002060010181905550600460003373ffffffffffffffffffffffffffffffffffffffff1673ffffffffffffffffffffffffffffffffffffffff168152602001908152602001600020600101549050919050565b6000600460003373ffffffffffffffffffffffffffffffffffffffff1673ffffffffffffffffffffffffffffffffffffffff16815260200190815260200160002060020154905090565b6001600460003373ffffffffffffffffffffffffffffffffffffffff1673ffffffffffffffffffffffffffffffffffffffff16815260200190815260200160002060040160006101000a81548160ff0219169083151502179055506000600460003373ffffffffffffffffffffffffffffffffffffffff1673ffffffffffffffffffffffffffffffffffffffff168152602001908152602001600020600001819055506000600460003373ffffffffffffffffffffffffffffffffffffffff1673ffffffffffffffffffffffffffffffffffffffff16815260200190815260200160002060030181905550600160008154809291906001019190505550565b611e9c6106f0565b611f0e576040517f08c379a00000000000000000000000000000000000000000000000000000000081526004018080602001828103825260208152602001807f4f776e61626c653a2063616c6c6572206973206e6f7420746865206f776e657281525060200191505060405180910390fd5b611f1781612951565b50565b600033905090565b6000600760009054906101000a900473ffffffffffffffffffffffffffffffffffffffff1673ffffffffffffffffffffffffffffffffffffffff16630261bf8b6040518163ffffffff1660e01b815260040160206040518083038186803b158015611f8c57600080fd5b505afa158015611fa0573d6000803e3d6000fd5b505050506040513d6020811015611fb657600080fd5b810190808051906020019092919050505090507f480097bb24c16e4d6c1a8252a60cddaaccd16188ebaa0753aa03adbb620e82b681604051808273ffffffffffffffffffffffffffffffffffffffff1673ffffffffffffffffffffffffffffffffffffffff16815260200191505060405180910390a18073ffffffffffffffffffffffffffffffffffffffff1663d2d0e066600560009054906101000a900473ffffffffffffffffffffffffffffffffffffffff168460006040518463ffffffff1660e01b8152600401808473ffffffffffffffffffffffffffffffffffffffff1673ffffffffffffffffffffffffffffffffffffffff1681526020018381526020018261ffff1681526020019350505050600060405180830381600087803b1580156120e257600080fd5b505af11580156120f6573d6000803e3d6000fd5b5050505081600460003373ffffffffffffffffffffffffffffffffffffffff1673ffffffffffffffffffffffffffffffffffffffff1681526020019081526020016000206003016000828254019250508190555081600460003373ffffffffffffffffffffffffffffffffffffffff1673ffffffffffffffffffffffffffffffffffffffff16815260200190815260200160002060000160008282540392505081905550816003600082825401925050819055503373ffffffffffffffffffffffffffffffffffffffff167fda6ec928f1d417ba3993610c23b567ca76cff2c9272d53320fb2bb80b7dc33c1836040518082815260200191505060405180910390a25050565b6000600760009054906101000a900473ffffffffffffffffffffffffffffffffffffffff1673ffffffffffffffffffffffffffffffffffffffff16630261bf8b6040518163ffffffff1660e01b815260040160206040518083038186803b15801561226657600080fd5b505afa15801561227a573d6000803e3d6000fd5b505050506040513d602081101561229057600080fd5b810190808051906020019092919050505090507f480097bb24c16e4d6c1a8252a60cddaaccd16188ebaa0753aa03adbb620e82b681604051808273ffffffffffffffffffffffffffffffffffffffff1673ffffffffffffffffffffffffffffffffffffffff16815260200191505060405180910390a18073ffffffffffffffffffffffffffffffffffffffff1663db006a75836040518263ffffffff1660e01b815260040180828152602001915050600060405180830381600087803b15801561235957600080fd5b505af115801561236d573d6000803e3d6000fd5b5050505081600460003373ffffffffffffffffffffffffffffffffffffffff1673ffffffffffffffffffffffffffffffffffffffff1681526020019081526020016000206003016000828254019250508190555081600460003373ffffffffffffffffffffffffffffffffffffffff1673ffffffffffffffffffffffffffffffffffffffff16815260200190815260200160002060000160008282540392505081905550816003600082825401925050819055503373ffffffffffffffffffffffffffffffffffffffff167fda6ec928f1d417ba3993610c23b567ca76cff2c9272d53320fb2bb80b7dc33c1836040518082815260200191505060405180910390a25050565b6000600460003373ffffffffffffffffffffffffffffffffffffffff1673ffffffffffffffffffffffffffffffffffffffff16815260200190815260200160002060000154600460003373ffffffffffffffffffffffffffffffffffffffff1673ffffffffffffffffffffffffffffffffffffffff1681526020019081526020016000206002015403905080600460003373ffffffffffffffffffffffffffffffffffffffff1673ffffffffffffffffffffffffffffffffffffffff1681526020019081526020016000206003015411156125f657612551816121fc565b80600460003373ffffffffffffffffffffffffffffffffffffffff1673ffffffffffffffffffffffffffffffffffffffff1681526020019081526020016000206003016000828254039250508190555080600460003373ffffffffffffffffffffffffffffffffffffffff1673ffffffffffffffffffffffffffffffffffffffff1681526020019081526020016000206000016000828254019250508190555061294e565b80600560009054906101000a900473ffffffffffffffffffffffffffffffffffffffff1673ffffffffffffffffffffffffffffffffffffffff1663dd62ed3e33306040518363ffffffff1660e01b8152600401808373ffffffffffffffffffffffffffffffffffffffff1673ffffffffffffffffffffffffffffffffffffffff1681526020018273ffffffffffffffffffffffffffffffffffffffff1673ffffffffffffffffffffffffffffffffffffffff1681526020019250505060206040518083038186803b1580156126ca57600080fd5b505afa1580156126de573d6000803e3d6000fd5b505050506040513d60208110156126f457600080fd5b8101908080519060200190929190505050101561275c576040517f08c379a0000000000000000000000000000000000000000000000000000000008152600401808060200182810382526044815260200180612abc6044913960600191505060405180910390fd5b60011515600560009054906101000a900473ffffffffffffffffffffffffffffffffffffffff1673ffffffffffffffffffffffffffffffffffffffff166323b872dd3330856040518463ffffffff1660e01b8152600401808473ffffffffffffffffffffffffffffffffffffffff1673ffffffffffffffffffffffffffffffffffffffff1681526020018373ffffffffffffffffffffffffffffffffffffffff1673ffffffffffffffffffffffffffffffffffffffff1681526020018281526020019350505050602060405180830381600087803b15801561283d57600080fd5b505af1158015612851573d6000803e3d6000fd5b505050506040513d602081101561286757600080fd5b81019080805190602001909291905050501515146128ed576040517f08c379a000000000000000000000000000000000000000000000000000000000815260040180806020018281038252600f8152602001807f5472616e73666572206661696c6564000000000000000000000000000000000081525060200191505060405180910390fd5b80600460003373ffffffffffffffffffffffffffffffffffffffff1673ffffffffffffffffffffffffffffffffffffffff16815260200190815260200160002060000160008282540192505081905550806002600082825401925050819055505b50565b600073ffffffffffffffffffffffffffffffffffffffff168173ffffffffffffffffffffffffffffffffffffffff1614156129d7576040517f08c379a0000000000000000000000000000000000000000000000000000000008152600401808060200182810382526026815260200180612a966026913960400191505060405180910390fd5b8073ffffffffffffffffffffffffffffffffffffffff166000809054906101000a900473ffffffffffffffffffffffffffffffffffffffff1673ffffffffffffffffffffffffffffffffffffffff167f8be0079c531659141344cd1fd0a4f28419497f9722a3daafe3b4186f6b6457e060405160405180910390a3806000806101000a81548173ffffffffffffffffffffffffffffffffffffffff021916908373ffffffffffffffffffffffffffffffffffffffff1602179055505056fe4f776e61626c653a206e6577206f776e657220697320746865207a65726f2061646472657373596f75206e65656420746f206861766520616c6c6f77616e636520746f20646f207472616e7366657220444149206f6e207468697320736d61727420636f6e747261637441646472657373206d75737420626520656e726f6c6c656420696e207468652062616e6ba265627a7a723158201ca79ef50532d0b50bd049be1e54a1fad97d65935f3b8c2bb25a5096d1e0905a64736f6c63430005100032",
  "source": "pragma solidity ^0.5.0;\n\n\nimport \"@openzeppelin/contracts/ownership/Ownable.sol\";\nimport \"@openzeppelin/contracts/token/ERC20/IERC20.sol\";\nimport \"./aave/interfaces/ILendingPool.sol\";\nimport \"./aave/interfaces/ILendingPoolAddressesProvider.sol\";\n\ncontract HybridBank is Ownable {\n    uint private clientCount;\n    uint private totalDeposits;\n    uint private totalInvested;\n\n    struct Account {\n        // Number of DAI tokens transferred and deposited to Hybrid Bank\n        // TODO: We should allow other tokens too\n        uint256 balance;\n        uint256 investmentThreshold;\n        uint256 minBalance;\n        uint256 invested;\n        bool isEnrolled;\n    }\n    mapping(address => Account) private accounts;\n\n    // DAI Token used by the account\n    IERC20 daiToken;\n    // AAVE aDAI aToken receiving interests\n    IERC20 adaiToken;\n    // AAVE referral. We could add referrals to customers.\n    // i.e. bringing new customers will earn more interest\n    uint16 private referral;\n\n    // TODO: Check this later\n    // using SafeERC20 for IERC20;\n    // using SafeMath for uint256;\n\n    // Retrieve LendingPool address from\n    // https://github.com/masaun/prediction-ticket/blob/master/contracts/StakingByAToken.sol\n\n    /// Retrieve LendingPool address\n    ILendingPoolAddressesProvider public lendingPoolAddressProvider;\n\n    // Log the event about a deposit being made by an address and its amount\n    event LogDepositMade(address indexed accountAddress, uint256 amount);\n    event LogLendingPoolCore(address lendingPoolCore);\n    event LogLendingPool(ILendingPool lendingPoolAddressProvider);\n    event LogInvestmentMade(address indexed accountAddress, uint256 amount);\n    event LogApproveERC20ToAAVE(address indexed from, address indexed to, IERC20 token);\n\n    modifier isEnrolled() {\n        require(\n            accounts[msg.sender].isEnrolled,\n            \"Address must be enrolled in the bank\"\n        );\n        _;\n    }\n\n    constructor(ILendingPoolAddressesProvider _lendingPoolAddressesProvider,\n                IERC20 _inboundCurrency,\n                IERC20 _interestCurrency\n                )\n                public {\n\n        daiToken = _inboundCurrency;\n        adaiToken = _interestCurrency;\n        lendingPoolAddressProvider = _lendingPoolAddressesProvider;\n\n        // Initialise variables\n        clientCount = 0;\n        totalDeposits = 0;\n        totalInvested = 0;\n\n        // Allow lending pool convert DAI deposited on this contract to aDAI on lending pool\n        address lendingPoolCore = lendingPoolAddressProvider.getLendingPoolCore();\n        emit LogLendingPoolCore(lendingPoolCore);\n\n        uint MAX_ALLOWANCE = 2**256 - 1;\n        daiToken.approve(lendingPoolCore, MAX_ALLOWANCE);\n        emit LogApproveERC20ToAAVE(msg.sender, lendingPoolCore, daiToken);\n      }\n\n    /// @notice Enroll a customer with the bank,\n    /// @return The balance of the user after enrolling\n    function enroll() public {\n        accounts[msg.sender].isEnrolled = true;\n        accounts[msg.sender].balance = 0;\n        accounts[msg.sender].invested = 0;\n        clientCount++;\n    }\n\n    /// @notice Deposit ether into bank\n    /// @return The balance of the user after the deposit is made\n    function deposit(uint256 _amount)\n        public\n        isEnrolled\n        returns (uint256, uint256) {\n\n        uint256 amountToInvest;\n\n        // Check allowance from DAI contract to transfer DAI to this contract\n        require(daiToken.allowance(msg.sender, address(this)) >= _amount, \"You need to have allowance to do transfer DAI on this smart contract\");\n\n        // Move DAI from user wallet to HybridBank\n        require(daiToken.transferFrom(msg.sender, address(this), _amount) == true, \"Transfer failed\");\n\n        // Add deposit amount to balance\n        accounts[msg.sender].balance += _amount;\n\n        totalDeposits += _amount;\n\n        // If current balance is higher than investmentThresdhold\n        if ((accounts[msg.sender].investmentThreshold > 0) && (accounts[msg.sender].balance > accounts[msg.sender].investmentThreshold))  {\n            amountToInvest = accounts[msg.sender].balance - accounts[msg.sender].investmentThreshold;\n            _investInAAVE(amountToInvest);\n        }\n\n        emit LogDepositMade(msg.sender, _amount);\n        return (accounts[msg.sender].balance, accounts[msg.sender].invested);\n    }\n\n\n    function _investInAAVE(uint256 _amount) internal {\n        ILendingPool lendingPool = ILendingPool(lendingPoolAddressProvider.getLendingPool());\n\n        emit LogLendingPool(lendingPool);\n\n        lendingPool.deposit(address(daiToken), _amount, 0);\n        accounts[msg.sender].invested += _amount;\n        accounts[msg.sender].balance -= _amount;\n        totalInvested += _amount;\n\n        emit LogInvestmentMade(msg.sender, _amount);\n\n    }\n\n    /// @notice pay with DAI to someone for something\n    /// @return balance\n    function pay(address _recipient, uint256 _amount)\n        public\n        isEnrolled\n        returns (uint256 balance, uint256 invested) {\n\n        uint256 amountToBorrow;\n\n        if (_amount <= accounts[msg.sender].balance) {\n            // Pay in DAI to recipient\n            // TODO: This will send DAI from Hybrid Bank to Recipient\n            // TODO: I think it should be more personal, i.e. sent money from person address\n            daiToken.transfer(_recipient, _amount);\n\n            // Update balances\n            accounts[msg.sender].balance -= _amount;\n            totalDeposits -= _amount;\n        }\n        // We don't have enough money.\n        else {\n            // Find out the amount we need\n            amountToBorrow = _amount - accounts[msg.sender].balance;\n\n            //  Do we have enough money in the investment account?\n            if (accounts[msg.sender].invested > amountToBorrow) {\n                // Get amount needed from AAVE\n                _redeemInvestmentAAVE(amountToBorrow);\n                // Update Balances\n                accounts[msg.sender].invested -= amountToBorrow;\n                accounts[msg.sender].balance += amountToBorrow;\n            }\n            // We don't have enough in our investment account so\n            // we transfer from DAI if we have enough allowance\n            else {\n                // Check allowance from DAI contract to transfer DAI to this contract\n                require(daiToken.allowance(msg.sender, address(this)) >= amountToBorrow, \"You need to have allowance to do transfer DAI on this smart contract\");\n\n                // Move DAI from user wallet to HybridBank\n                require(daiToken.transferFrom(msg.sender, address(this), amountToBorrow) == true, \"Transfer failed\");\n\n                // Update Balances\n                accounts[msg.sender].balance += amountToBorrow;\n                totalDeposits += amountToBorrow;\n            }\n            // We have now enough balance to pay\n            // Pay in DAI to recipient\n            daiToken.transfer(_recipient, _amount);\n\n            // Update Balances\n            accounts[msg.sender].balance -= _amount;\n            totalDeposits -= _amount;\n        }\n        if (accounts[msg.sender].balance < accounts[msg.sender].minBalance) {\n            _topUp();\n        }\n\n        return (accounts[msg.sender].balance, accounts[msg.sender].invested);\n    }\n\n    function _redeemInvestmentAAVE(uint256 _amount)\n        internal {\n        ILendingPool lendingPool = ILendingPool(lendingPoolAddressProvider.getLendingPool());\n\n        emit LogLendingPool(lendingPool);\n\n        lendingPool.redeem(_amount);\n        accounts[msg.sender].invested += _amount;\n        accounts[msg.sender].balance -= _amount;\n        totalInvested += _amount;\n\n        emit LogInvestmentMade(msg.sender, _amount);\n\n    }\n\n    function _topUp()\n        internal {\n        // Topup functionality. If balance is below minBalance get money back from AAVE if possible\n        // If there's not enough money in AAVE, two options:\n        // 1. Check if we have allowance from DAI contract, if we have enough we transfer money from DAI contract\n        // 2. Check options for a micro loan\n        uint256 amountToBorrow;\n\n        // Find out the amount we need\n        amountToBorrow = accounts[msg.sender].minBalance - accounts[msg.sender].balance;\n        if (accounts[msg.sender].invested > amountToBorrow) {\n            // Get amount needed from AAVE\n            _redeemInvestmentAAVE(amountToBorrow);\n            // Update Balances\n            accounts[msg.sender].invested -= amountToBorrow;\n            accounts[msg.sender].balance += amountToBorrow;\n        }\n        else {\n            // Check allowance from DAI contract to transfer DAI to this contract\n            require(daiToken.allowance(msg.sender, address(this)) >= amountToBorrow, \"You need to have allowance to do transfer DAI on this smart contract\");\n\n            // Move DAI from user wallet to HybridBank\n            require(daiToken.transferFrom(msg.sender, address(this), amountToBorrow) == true, \"Transfer failed\");\n\n            // Add deposit amount to balance\n            accounts[msg.sender].balance += amountToBorrow;\n\n            totalDeposits += amountToBorrow;\n\n        // Micro credit or Flash Loan\n        }\n    }\n\n    /// @notice Just reads balances of the account requesting, so \"constant\"\n    /// @return The balance of the user, amount deposited, invested and invested plus interests\n    function balance()\n        public view\n        isEnrolled\n        returns (uint256, uint256, uint256) {\n\n        uint256 percentageInvested;\n        uint256 investedWithInterests;\n        if (accounts[msg.sender].invested > 0) {\n            percentageInvested = accounts[msg.sender].invested / totalInvested;\n            investedWithInterests = adaiToken.balanceOf(address(this)) * percentageInvested;\n        }\n        else\n        {\n            investedWithInterests = 0;\n        }\n        return (accounts[msg.sender].balance, accounts[msg.sender].invested, investedWithInterests);\n    }\n\n    /// @notice Set investment threshold\n    /// @return investmentThresholdSet\n    function setInvestmentThreshold(uint256 investmentThreshold) \n        public \n        returns (uint256 investmentThresholdSet) \n    {\n        accounts[msg.sender].investmentThreshold = investmentThreshold;\n        return accounts[msg.sender].investmentThreshold;\n    }\n    \n    /// @notice reads the get investmentThreshold \n    /// @return investmentThreshold\n    function getInvestmentThreshold()\n        public view returns (uint256) {\n        return accounts[msg.sender].investmentThreshold;\n    }\n\n    /// @notice reads the get investment\n    /// @return investment\n    function getInvestmentBalance()\n    public view returns (uint256) {\n        // AAVE Investment Balance\n        // return lendingPool.getUserReserveData(underlying_asset, msg.sender)\n        return accounts[msg.sender].invested;\n    }\n    \n    /// @notice Set minBalance \n    /// @return minBalanceSet\n    function setMinBalance(uint256 minBalance) \n        public \n        returns (uint256 minBalanceSet) \n    {\n        accounts[msg.sender].minBalance = minBalance;\n            return accounts[msg.sender].minBalance;\n    }\n    \n    /// @notice reads the set minBalance \n    /// @return minBalance\n    function getMinBalance()\n        public view\n        returns (uint256) {\n        return accounts[msg.sender].minBalance;\n    }\n\n    /// @notice reads the Total amount deposited in the Hybrid Bank\n    /// @return totalDeposits\n    function getTotalDeposits()\n        public view\n        returns (uint256) {\n        return totalDeposits;\n    }\n\n    /// @notice reads the Total amount invested in AAVE without interests\n    /// @return totalDeposits\n    function getTotalInvested()\n        public view\n        returns (uint256) {\n        return totalInvested;\n    }\n\n    /// @notice reads the Hybrid Bank DAI balance\n    /// @return DAI balance\n    function getContractDAIBalance()\n        public view\n        returns (uint256) {\n        return daiToken.balanceOf(address(this));\n    }\n\n    /// @notice Just reads balances of the aDai token\n    /// @return The balance of the total amount invested in AAVE with interests\n    function getContractAAVEBalance()\n        public view\n        onlyOwner\n        returns(uint256) {\n        return adaiToken.balanceOf(address(this));\n    }\n\n    /// @notice reads the Hybrid bank clients count\n    /// @return clientCount\n    function getClientCount()\n        public view\n        onlyOwner\n        returns (uint256) {\n        return clientCount;\n    }\n}",
  "sourcePath": "/Users/alfonso/repositories/Ethereum/DaiRich/contracts/HybridBank.sol",
  "compiler": {
    "name": "solc",
    "version": "0.5.16+commit.9c3226ce.Emscripten.clang"
  },
  "schemaVersion": "3.0.23",
  "updatedAt": "2020-03-28T19:38:49.817Z",
  "devdoc": {
    "methods": {
      "balance()": {
        "return": "The balance of the user, amount deposited, invested and invested plus interests"
      },
      "deposit(uint256)": {
        "return": "The balance of the user after the deposit is made"
      },
      "enroll()": {
        "return": "The balance of the user after enrolling"
      },
      "getClientCount()": {
        "return": "clientCount"
      },
      "getContractAAVEBalance()": {
        "return": "The balance of the total amount invested in AAVE with interests"
      },
      "getContractDAIBalance()": {
        "return": "DAI balance"
      },
      "getInvestmentBalance()": {
        "return": "investment"
      },
      "getInvestmentThreshold()": {
        "return": "investmentThreshold"
      },
      "getMinBalance()": {
        "return": "minBalance"
      },
      "getTotalDeposits()": {
        "return": "totalDeposits"
      },
      "getTotalInvested()": {
        "return": "totalDeposits"
      },
      "isOwner()": {
        "details": "Returns true if the caller is the current owner."
      },
      "owner()": {
        "details": "Returns the address of the current owner."
      },
      "pay(address,uint256)": {
        "return": "balance"
      },
      "renounceOwnership()": {
        "details": "Leaves the contract without owner. It will not be possible to call `onlyOwner` functions anymore. Can only be called by the current owner.     * NOTE: Renouncing ownership will leave the contract without an owner, thereby removing any functionality that is only available to the owner."
      },
      "setInvestmentThreshold(uint256)": {
        "return": "investmentThresholdSet"
      },
      "setMinBalance(uint256)": {
        "return": "minBalanceSet"
      },
      "transferOwnership(address)": {
        "details": "Transfers ownership of the contract to a new account (`newOwner`). Can only be called by the current owner."
      }
    }
  },
  "userdoc": {
    "methods": {
      "balance()": {
        "notice": "Just reads balances of the account requesting, so \"constant\""
      },
      "deposit(uint256)": {
        "notice": "Deposit ether into bank"
      },
      "enroll()": {
        "notice": "Enroll a customer with the bank,"
      },
      "getClientCount()": {
        "notice": "reads the Hybrid bank clients count"
      },
      "getContractAAVEBalance()": {
        "notice": "Just reads balances of the aDai token"
      },
      "getContractDAIBalance()": {
        "notice": "reads the Hybrid Bank DAI balance"
      },
      "getInvestmentBalance()": {
        "notice": "reads the get investment"
      },
      "getInvestmentThreshold()": {
        "notice": "reads the get investmentThreshold "
      },
      "getMinBalance()": {
        "notice": "reads the set minBalance "
      },
      "getTotalDeposits()": {
        "notice": "reads the Total amount deposited in the Hybrid Bank"
      },
      "getTotalInvested()": {
        "notice": "reads the Total amount invested in AAVE without interests"
      },
      "pay(address,uint256)": {
        "notice": "pay with DAI to someone for something"
      },
      "setInvestmentThreshold(uint256)": {
        "notice": "Set investment threshold"
      },
      "setMinBalance(uint256)": {
        "notice": "Set minBalance "
      }
    }
  }
}